:0400000040EF3EF09F
:107C50008424016E01508C121200016E0150FF0A43
:107C60008C161200000E956E000E936E240E0A6E96
:107C7000840E096E7BEC3FF036EF3EF000EF00F033
:107C8000500EF66E7C0EF76E000EF86E0900F5CF02
:107C900014F00900F5CF15F0000EF86E000132EF78
:107CA0003EF0000E066E02BE5AEF3EF058EF3EF078
:107CB00060EF3EF0016C021ED8B0022A010E066E83
:107CC00004BE67EF3EF065EF3EF06BEF3EF0036CF5
:107CD000041ED8B0042A03500410D8B472EF3EF04A
:107CE00074EF3EF098EF3EF0010E056E7CEF3EF033
:107CF000D89003360436052A04AE81EF3EF083EFB8
:107D00003EF078EF3EF00350015C04500258D8A0DA
:107D10008CEF3EF08EEF3EF092EF3EF00350015EAE
:107D20000450025AD89004320332052E83EF3EF0FD
:107D30000650D8B49EEF3EF0A0EF3EF0A4EF3EF028
:107D4000016C021ED8B0022A01C001F002C002F08C
:107D50001200000E066E04BEB2EF3EF0B0EF3EF031
:107D6000B8EF3EF0036C041ED8B0042A010E066E74
:107D700002BEBFEF3EF0BDEF3EF0C5EF3EF0016C3E
:107D8000021ED8B0022A010E061A000E086E000E5E
:107D9000076E03500410D8B4D0EF3EF0D2EF3EF09F
:107DA000FAEF3EF0010E056EDAEF3EF0D8900336A2
:107DB0000436052A04AEDFEF3EF0E1EF3EF0D6EFE9
:107DC0003EF0D890073608360350015C0450025844
:107DD000D8A0EDEF3EF0EFEF3EF0F4EF3EF00350B1
:107DE000015E0450025A0780D89004320332052EF7
:107DF000E1EF3EF00650D8B400EF3FF002EF3FF065
:107E000006EF3FF0076C081ED8B0082A07C001F043
:107E100008C002F01200046EFF0E29EC3EF043EFA2
:107E20003FF03F0E2DEC3EF07AEF3FF0060E2DECCA
:107E30003EF07AEF3FF05B0E2DEC3EF07AEF3FF034
:107E40004F0E2DEC3EF07AEF3FF0660E2DEC3EF03B
:107E50007AEF3FF06D0E2DEC3EF07AEF3FF07D0EA5
:107E60002DEC3EF07AEF3FF0070E2DEC3EF07AEF6E
:107E70003FF07F0E2DEC3EF07AEF3FF0670E2DECD9
:107E80003EF07AEF3FF004C002F0036A02BE030640
:107E90000350000AD8B44FEF3FF07AEF3FF00250A2
:107EA000000AD8B411EF3FF0010AD8B416EF3FF042
:107EB000030AD8B41BEF3FF0010AD8B420EF3FF01B
:107EC000070AD8B425EF3FF0010AD8B42AEF3FF0F3
:107ED000030AD8B42FEF3FF0010AD8B434EF3FF0D3
:107EE0000F0AD8B439EF3FF0010AD8B43EEF3FF0A3
:107EF0007AEF3FF0120009C001F00AC002F0030E51
:107F0000046EE80E036EA9EC3EF001C00CF002C056
:107F10000DF009C001F00AC002F0030E046EE80E75
:107F2000036E51EC3EF001C009F002C00AF009C036
:107F300001F00AC002F0000E046E640E036EA9EC9C
:107F40003EF001C00EF002C00FF009C001F00AC0FF
:107F500002F0000E046E640E036E51EC3EF001C0A0
:107F600009F002C00AF009C001F00AC002F0000ED8
:107F7000046E0A0E036EA9EC3EF001C010F002C0C0
:107F800011F009C001F00AC002F0000E046E0A0EE2
:107F9000036E51EC3EF001C012F002C013F012501B
:107FA0000BEC3FF0080E8A6E040E0B6E3E0EE82EB0
:107FB000FED70B2EFCD710500BEC3FF0040E8A6E50
:107FC000040E0B6E3E0EE82EFED70B2EFCD70E5085
:107FD0000BEC3FF0020E8A6E040E0B6E3E0EE82E86
:107FE000FED70B2EFCD70C500BEC3FF0010E8A6E27
:107FF000040E0B6E3E0EE82EFED70B2EFCD71200A1
:020000040020DA
:08000000FFFFFFFFFFFFFFFF00
:020000040030CA
:0E000000000C1F1EFF8381FF0FC00FE00F409A
:00000001FF
